{
  "abi": [
    {
      "inputs": [
        {
          "internalType": "address",
          "name": "_cheruToken",
          "type": "address"
        }
      ],
      "stateMutability": "nonpayable",
      "type": "constructor"
    },
    {
      "anonymous": false,
      "inputs": [
        {
          "indexed": true,
          "internalType": "address",
          "name": "previousOwner",
          "type": "address"
        },
        {
          "indexed": true,
          "internalType": "address",
          "name": "newOwner",
          "type": "address"
        }
      ],
      "name": "OwnershipTransferred",
      "type": "event"
    },
    {
      "inputs": [
        {
          "internalType": "address",
          "name": "_token",
          "type": "address"
        }
      ],
      "name": "addAllowedToken",
      "outputs": [
        {
          "internalType": "bool",
          "name": "",
          "type": "bool"
        }
      ],
      "stateMutability": "nonpayable",
      "type": "function"
    },
    {
      "inputs": [
        {
          "internalType": "uint256",
          "name": "",
          "type": "uint256"
        }
      ],
      "name": "allowedTokensToStake",
      "outputs": [
        {
          "internalType": "address",
          "name": "",
          "type": "address"
        }
      ],
      "stateMutability": "view",
      "type": "function"
    },
    {
      "inputs": [],
      "name": "cheruToken",
      "outputs": [
        {
          "internalType": "contract IERC20",
          "name": "",
          "type": "address"
        }
      ],
      "stateMutability": "view",
      "type": "function"
    },
    {
      "inputs": [
        {
          "internalType": "address",
          "name": "_token",
          "type": "address"
        }
      ],
      "name": "getPrice",
      "outputs": [
        {
          "internalType": "uint256",
          "name": "",
          "type": "uint256"
        },
        {
          "internalType": "uint256",
          "name": "",
          "type": "uint256"
        }
      ],
      "stateMutability": "view",
      "type": "function"
    },
    {
      "inputs": [
        {
          "internalType": "address",
          "name": "_staker",
          "type": "address"
        }
      ],
      "name": "getTotalTransferValue",
      "outputs": [
        {
          "internalType": "uint256",
          "name": "",
          "type": "uint256"
        }
      ],
      "stateMutability": "view",
      "type": "function"
    },
    {
      "inputs": [
        {
          "internalType": "address",
          "name": "_staker",
          "type": "address"
        },
        {
          "internalType": "address",
          "name": "_token",
          "type": "address"
        }
      ],
      "name": "getTransferValuePerToken",
      "outputs": [
        {
          "internalType": "uint256",
          "name": "",
          "type": "uint256"
        }
      ],
      "stateMutability": "view",
      "type": "function"
    },
    {
      "inputs": [
        {
          "internalType": "address",
          "name": "_token",
          "type": "address"
        }
      ],
      "name": "isAllowedToken",
      "outputs": [
        {
          "internalType": "bool",
          "name": "",
          "type": "bool"
        }
      ],
      "stateMutability": "nonpayable",
      "type": "function"
    },
    {
      "inputs": [],
      "name": "issueTokens",
      "outputs": [],
      "stateMutability": "nonpayable",
      "type": "function"
    },
    {
      "inputs": [],
      "name": "owner",
      "outputs": [
        {
          "internalType": "address",
          "name": "",
          "type": "address"
        }
      ],
      "stateMutability": "view",
      "type": "function"
    },
    {
      "inputs": [],
      "name": "renounceOwnership",
      "outputs": [],
      "stateMutability": "nonpayable",
      "type": "function"
    },
    {
      "inputs": [
        {
          "internalType": "address",
          "name": "_token",
          "type": "address"
        },
        {
          "internalType": "address",
          "name": "_priceFeed",
          "type": "address"
        }
      ],
      "name": "setPriceFeedContract",
      "outputs": [],
      "stateMutability": "nonpayable",
      "type": "function"
    },
    {
      "inputs": [
        {
          "internalType": "uint256",
          "name": "_amount",
          "type": "uint256"
        },
        {
          "internalType": "address",
          "name": "_stakedToken",
          "type": "address"
        }
      ],
      "name": "stakeTokens",
      "outputs": [],
      "stateMutability": "nonpayable",
      "type": "function"
    },
    {
      "inputs": [
        {
          "internalType": "address",
          "name": "",
          "type": "address"
        },
        {
          "internalType": "address",
          "name": "",
          "type": "address"
        }
      ],
      "name": "stakedBalances",
      "outputs": [
        {
          "internalType": "uint256",
          "name": "",
          "type": "uint256"
        }
      ],
      "stateMutability": "view",
      "type": "function"
    },
    {
      "inputs": [
        {
          "internalType": "uint256",
          "name": "",
          "type": "uint256"
        }
      ],
      "name": "stakers",
      "outputs": [
        {
          "internalType": "address",
          "name": "",
          "type": "address"
        }
      ],
      "stateMutability": "view",
      "type": "function"
    },
    {
      "inputs": [
        {
          "internalType": "address",
          "name": "",
          "type": "address"
        }
      ],
      "name": "tokenPriceFeedMapping",
      "outputs": [
        {
          "internalType": "address",
          "name": "",
          "type": "address"
        }
      ],
      "stateMutability": "view",
      "type": "function"
    },
    {
      "inputs": [
        {
          "internalType": "address",
          "name": "newOwner",
          "type": "address"
        }
      ],
      "name": "transferOwnership",
      "outputs": [],
      "stateMutability": "nonpayable",
      "type": "function"
    },
    {
      "inputs": [
        {
          "internalType": "address",
          "name": "",
          "type": "address"
        }
      ],
      "name": "uniqueTokensStaked",
      "outputs": [
        {
          "internalType": "uint256",
          "name": "",
          "type": "uint256"
        }
      ],
      "stateMutability": "view",
      "type": "function"
    },
    {
      "inputs": [
        {
          "internalType": "address",
          "name": "_token",
          "type": "address"
        }
      ],
      "name": "unstakeTokens",
      "outputs": [],
      "stateMutability": "nonpayable",
      "type": "function"
    }
  ],
  "bytecode": "608060405234801561001057600080fd5b506040516110c03803806110c083398101604081905261002f916100ad565b6100383361005d565b600680546001600160a01b0319166001600160a01b03929092169190911790556100dd565b600080546001600160a01b038381166001600160a01b0319831681178455604051919092169283917f8be0079c531659141344cd1fd0a4f28419497f9722a3daafe3b4186f6b6457e09190a35050565b6000602082840312156100bf57600080fd5b81516001600160a01b03811681146100d657600080fd5b9392505050565b610fd4806100ec6000396000f3fe608060405234801561001057600080fd5b50600436106101165760003560e01c80638da5cb5b116100a2578063cbe230c311610071578063cbe230c314610287578063d4df506a1461029a578063f2fde38b146102ad578063fb3b08be146102c0578063fd5e6dd1146102d357600080fd5b80638da5cb5b1461020a578063a1499e581461021b578063a45609961461023c578063b83e02341461026757600080fd5b806341976e09116100e957806341976e09146101ac57806360ab5852146101d45780636e6d2c7d146101dc578063715018a6146101ef578063877dd39d146101f757600080fd5b80630bea440d1461011b57806327927b3e146101305780632d1ad8b8146101765780634178617f14610189575b600080fd5b61012e610129366004610c84565b6102e6565b005b61015961013e366004610cb0565b6005602052600090815260409020546001600160a01b031681565b6040516001600160a01b0390911681526020015b60405180910390f35b61012e610184366004610cb0565b6104d0565b61019c610197366004610cb0565b6105e7565b604051901515815260200161016d565b6101bf6101ba366004610cb0565b610681565b6040805192835260208301919091520161016d565b61012e610782565b6101596101ea366004610cd2565b61087f565b61012e6108a9565b61012e610205366004610ceb565b6108df565b6000546001600160a01b0316610159565b61022e610229366004610cb0565b610937565b60405190815260200161016d565b61022e61024a366004610ceb565b600260209081526000928352604080842090915290825290205481565b61022e610275366004610cb0565b60036020526000908152604090205481565b61019c610295366004610cb0565b610a01565b61022e6102a8366004610ceb565b610a65565b61012e6102bb366004610cb0565b610b22565b600654610159906001600160a01b031681565b6101596102e1366004610cd2565b610bba565b6000821161034c5760405162461bcd60e51b815260206004820152602860248201527f4661696c65643a205374616b656420616d6f756e742073686f756c64206265206044820152676e6f6e207a65726f60c01b60648201526084015b60405180910390fd5b61035581610a01565b6103b85760405162461bcd60e51b815260206004820152602e60248201527f4661696c65643a20546f6b656e206973206e6f7420696e206c697374206f662060448201526d616c6c6f77656420746f6b656e7360901b6064820152608401610343565b6040516323b872dd60e01b8152336004820152306024820152604481018390526001600160a01b038216906323b872dd906064016020604051808303816000875af115801561040b573d6000803e3d6000fd5b505050506040513d601f19601f8201168201806040525081019061042f9190610d15565b5061043a3382610bca565b6001600160a01b03811660009081526002602090815260408083203384529091528120805484929061046d908490610d4d565b9091555050336000908152600360205260409020546001036104cc57600480546001810182556000919091527f8a35acfbc15ff81a39ae7d344fd709f28e8600b4aa8c65c6b64bfe7fe36bd19b0180546001600160a01b031916331790555b5050565b6001600160a01b03811660009081526002602090815260408083203384529091529020548061052e5760405162461bcd60e51b815260206004820152600a6024820152694e6f2062616c616e636560b01b6044820152606401610343565b60405163a9059cbb60e01b8152336004820152602481018290526001600160a01b0383169063a9059cbb906044016020604051808303816000875af115801561057b573d6000803e3d6000fd5b505050506040513d601f19601f8201168201806040525081019061059f9190610d15565b506001600160a01b03821660009081526002602090815260408083203384528252808320839055600390915281208054600192906105de908490610d65565b90915550505050565b600080546001600160a01b031633146106125760405162461bcd60e51b815260040161034390610d7c565b600061061d83610a01565b90508061067657505060018054808201825560008290527fb10e2d527612073b26eecdfd717e6a320cf44b4afac2b0732d9fcbe2b7fa0cf60180546001600160a01b0384166001600160a01b0319909116179055919050565b60009150505b919050565b6001600160a01b03808216600090815260056020526040808220548151633fabe5a360e21b815291519293849391169182918491839163feaf968c9160048082019260a0929091908290030181865afa1580156106e2573d6000803e3d6000fd5b505050506040513d601f19601f820116820180604052508101906107069190610dcb565b5050509150506000826001600160a01b031663313ce5676040518163ffffffff1660e01b8152600401602060405180830381865afa15801561074c573d6000803e3d6000fd5b505050506040513d601f19601f820116820180604052508101906107709190610e1b565b919760ff909216965090945050505050565b6000546001600160a01b031633146107ac5760405162461bcd60e51b815260040161034390610d7c565b60005b60045481101561087c576000600482815481106107ce576107ce610e3e565b60009182526020822001546001600160a01b031691506107ed82610937565b60065460405163a9059cbb60e01b81526001600160a01b0385811660048301526024820184905292935091169063a9059cbb906044016020604051808303816000875af1158015610842573d6000803e3d6000fd5b505050506040513d601f19601f820116820180604052508101906108669190610d15565b505050808061087490610e54565b9150506107af565b50565b6001818154811061088f57600080fd5b6000918252602090912001546001600160a01b0316905081565b6000546001600160a01b031633146108d35760405162461bcd60e51b815260040161034390610d7c565b6108dd6000610c1d565b565b6000546001600160a01b031633146109095760405162461bcd60e51b815260040161034390610d7c565b6001600160a01b03918216600090815260056020526040902080546001600160a01b03191691909216179055565b6001600160a01b038116600090815260036020526040812054819061099e5760405162461bcd60e51b815260206004820181905260248201527f4e6f20746f6b656e73207374616b65642062792063757272656e7420757365726044820152606401610343565b60005b6001548110156109fa576109dc84600183815481106109c2576109c2610e3e565b6000918252602090912001546001600160a01b0316610a65565b6109e69083610d4d565b9150806109f281610e54565b9150506109a1565b5092915050565b6000805b600154811015610a5c5760018181548110610a2257610a22610e3e565b6000918252602090912001546001600160a01b0390811690841603610a4a5750600192915050565b80610a5481610e54565b915050610a05565b50600092915050565b6001600160a01b038216600090815260036020526040812054610a8a57506000610b1c565b6001600160a01b0380831660009081526002602090815260408083209387168352929052908120549003610ac057506000610b1c565b600080610acc84610681565b9092509050610adc81600a610f51565b6001600160a01b038086166000908152600260209081526040808320938a1683529290522054610b0d908490610f5d565b610b179190610f7c565b925050505b92915050565b6000546001600160a01b03163314610b4c5760405162461bcd60e51b815260040161034390610d7c565b6001600160a01b038116610bb15760405162461bcd60e51b815260206004820152602660248201527f4f776e61626c653a206e6577206f776e657220697320746865207a65726f206160448201526564647265737360d01b6064820152608401610343565b61087c81610c1d565b6004818154811061088f57600080fd5b6001600160a01b038082166000908152600260209081526040808320938616835292905220546104cc576001600160a01b03821660009081526003602052604081208054600192906105de908490610d4d565b600080546001600160a01b038381166001600160a01b0319831681178455604051919092169283917f8be0079c531659141344cd1fd0a4f28419497f9722a3daafe3b4186f6b6457e09190a35050565b80356001600160a01b038116811461067c57600080fd5b60008060408385031215610c9757600080fd5b82359150610ca760208401610c6d565b90509250929050565b600060208284031215610cc257600080fd5b610ccb82610c6d565b9392505050565b600060208284031215610ce457600080fd5b5035919050565b60008060408385031215610cfe57600080fd5b610d0783610c6d565b9150610ca760208401610c6d565b600060208284031215610d2757600080fd5b81518015158114610ccb57600080fd5b634e487b7160e01b600052601160045260246000fd5b60008219821115610d6057610d60610d37565b500190565b600082821015610d7757610d77610d37565b500390565b6020808252818101527f4f776e61626c653a2063616c6c6572206973206e6f7420746865206f776e6572604082015260600190565b805169ffffffffffffffffffff8116811461067c57600080fd5b600080600080600060a08688031215610de357600080fd5b610dec86610db1565b9450602086015193506040860151925060608601519150610e0f60808701610db1565b90509295509295909350565b600060208284031215610e2d57600080fd5b815160ff81168114610ccb57600080fd5b634e487b7160e01b600052603260045260246000fd5b600060018201610e6657610e66610d37565b5060010190565b600181815b80851115610ea8578160001904821115610e8e57610e8e610d37565b80851615610e9b57918102915b93841c9390800290610e72565b509250929050565b600082610ebf57506001610b1c565b81610ecc57506000610b1c565b8160018114610ee25760028114610eec57610f08565b6001915050610b1c565b60ff841115610efd57610efd610d37565b50506001821b610b1c565b5060208310610133831016604e8410600b8410161715610f2b575081810a610b1c565b610f358383610e6d565b8060001904821115610f4957610f49610d37565b029392505050565b6000610ccb8383610eb0565b6000816000190483118215151615610f7757610f77610d37565b500290565b600082610f9957634e487b7160e01b600052601260045260246000fd5b50049056fea2646970667358221220cac11f20ff8b7a933f3d054676c6f085a67c370088cde171295145b598d8129864736f6c634300080d0033",
  "bytecodeSha1": "81c094d7b0854dbf58a912053937b184cd17ef41",
  "compiler": {
    "evm_version": "istanbul",
    "optimizer": {
      "enabled": true,
      "runs": 200
    },
    "version": "0.8.13+commit.abaa5c0e"
  },
  "contractName": "TokenFarm",
  "language": "Solidity",
  "natspec": {
    "kind": "dev",
    "methods": {
      "owner()": {
        "details": "Returns the address of the current owner."
      },
      "renounceOwnership()": {
        "details": "Leaves the contract without owner. It will not be possible to call `onlyOwner` functions anymore. Can only be called by the current owner. NOTE: Renouncing ownership will leave the contract without an owner, thereby removing any functionality that is only available to the owner."
      },
      "transferOwnership(address)": {
        "details": "Transfers ownership of the contract to a new account (`newOwner`). Can only be called by the current owner."
      }
    },
    "version": 1
  },
  "opcodes": "PUSH1 0x80 PUSH1 0x40 MSTORE CALLVALUE DUP1 ISZERO PUSH2 0x10 JUMPI PUSH1 0x0 DUP1 REVERT JUMPDEST POP PUSH1 0x4 CALLDATASIZE LT PUSH2 0x116 JUMPI PUSH1 0x0 CALLDATALOAD PUSH1 0xE0 SHR DUP1 PUSH4 0x8DA5CB5B GT PUSH2 0xA2 JUMPI DUP1 PUSH4 0xCBE230C3 GT PUSH2 0x71 JUMPI DUP1 PUSH4 0xCBE230C3 EQ PUSH2 0x287 JUMPI DUP1 PUSH4 0xD4DF506A EQ PUSH2 0x29A JUMPI DUP1 PUSH4 0xF2FDE38B EQ PUSH2 0x2AD JUMPI DUP1 PUSH4 0xFB3B08BE EQ PUSH2 0x2C0 JUMPI DUP1 PUSH4 0xFD5E6DD1 EQ PUSH2 0x2D3 JUMPI PUSH1 0x0 DUP1 REVERT JUMPDEST DUP1 PUSH4 0x8DA5CB5B EQ PUSH2 0x20A JUMPI DUP1 PUSH4 0xA1499E58 EQ PUSH2 0x21B JUMPI DUP1 PUSH4 0xA4560996 EQ PUSH2 0x23C JUMPI DUP1 PUSH4 0xB83E0234 EQ PUSH2 0x267 JUMPI PUSH1 0x0 DUP1 REVERT JUMPDEST DUP1 PUSH4 0x41976E09 GT PUSH2 0xE9 JUMPI DUP1 PUSH4 0x41976E09 EQ PUSH2 0x1AC JUMPI DUP1 PUSH4 0x60AB5852 EQ PUSH2 0x1D4 JUMPI DUP1 PUSH4 0x6E6D2C7D EQ PUSH2 0x1DC JUMPI DUP1 PUSH4 0x715018A6 EQ PUSH2 0x1EF JUMPI DUP1 PUSH4 0x877DD39D EQ PUSH2 0x1F7 JUMPI PUSH1 0x0 DUP1 REVERT JUMPDEST DUP1 PUSH4 0xBEA440D EQ PUSH2 0x11B JUMPI DUP1 PUSH4 0x27927B3E EQ PUSH2 0x130 JUMPI DUP1 PUSH4 0x2D1AD8B8 EQ PUSH2 0x176 JUMPI DUP1 PUSH4 0x4178617F EQ PUSH2 0x189 JUMPI JUMPDEST PUSH1 0x0 DUP1 REVERT JUMPDEST PUSH2 0x12E PUSH2 0x129 CALLDATASIZE PUSH1 0x4 PUSH2 0xC84 JUMP JUMPDEST PUSH2 0x2E6 JUMP JUMPDEST STOP JUMPDEST PUSH2 0x159 PUSH2 0x13E CALLDATASIZE PUSH1 0x4 PUSH2 0xCB0 JUMP JUMPDEST PUSH1 0x5 PUSH1 0x20 MSTORE PUSH1 0x0 SWAP1 DUP2 MSTORE PUSH1 0x40 SWAP1 KECCAK256 SLOAD PUSH1 0x1 PUSH1 0x1 PUSH1 0xA0 SHL SUB AND DUP2 JUMP JUMPDEST PUSH1 0x40 MLOAD PUSH1 0x1 PUSH1 0x1 PUSH1 0xA0 SHL SUB SWAP1 SWAP2 AND DUP2 MSTORE PUSH1 0x20 ADD JUMPDEST PUSH1 0x40 MLOAD DUP1 SWAP2 SUB SWAP1 RETURN JUMPDEST PUSH2 0x12E PUSH2 0x184 CALLDATASIZE PUSH1 0x4 PUSH2 0xCB0 JUMP JUMPDEST PUSH2 0x4D0 JUMP JUMPDEST PUSH2 0x19C PUSH2 0x197 CALLDATASIZE PUSH1 0x4 PUSH2 0xCB0 JUMP JUMPDEST PUSH2 0x5E7 JUMP JUMPDEST PUSH1 0x40 MLOAD SWAP1 ISZERO ISZERO DUP2 MSTORE PUSH1 0x20 ADD PUSH2 0x16D JUMP JUMPDEST PUSH2 0x1BF PUSH2 0x1BA CALLDATASIZE PUSH1 0x4 PUSH2 0xCB0 JUMP JUMPDEST PUSH2 0x681 JUMP JUMPDEST PUSH1 0x40 DUP1 MLOAD SWAP3 DUP4 MSTORE PUSH1 0x20 DUP4 ADD SWAP2 SWAP1 SWAP2 MSTORE ADD PUSH2 0x16D JUMP JUMPDEST PUSH2 0x12E PUSH2 0x782 JUMP JUMPDEST PUSH2 0x159 PUSH2 0x1EA CALLDATASIZE PUSH1 0x4 PUSH2 0xCD2 JUMP JUMPDEST PUSH2 0x87F JUMP JUMPDEST PUSH2 0x12E PUSH2 0x8A9 JUMP JUMPDEST PUSH2 0x12E PUSH2 0x205 CALLDATASIZE PUSH1 0x4 PUSH2 0xCEB JUMP JUMPDEST PUSH2 0x8DF JUMP JUMPDEST PUSH1 0x0 SLOAD PUSH1 0x1 PUSH1 0x1 PUSH1 0xA0 SHL SUB AND PUSH2 0x159 JUMP JUMPDEST PUSH2 0x22E PUSH2 0x229 CALLDATASIZE PUSH1 0x4 PUSH2 0xCB0 JUMP JUMPDEST PUSH2 0x937 JUMP JUMPDEST PUSH1 0x40 MLOAD SWAP1 DUP2 MSTORE PUSH1 0x20 ADD PUSH2 0x16D JUMP JUMPDEST PUSH2 0x22E PUSH2 0x24A CALLDATASIZE PUSH1 0x4 PUSH2 0xCEB JUMP JUMPDEST PUSH1 0x2 PUSH1 0x20 SWAP1 DUP2 MSTORE PUSH1 0x0 SWAP3 DUP4 MSTORE PUSH1 0x40 DUP1 DUP5 KECCAK256 SWAP1 SWAP2 MSTORE SWAP1 DUP3 MSTORE SWAP1 KECCAK256 SLOAD DUP2 JUMP JUMPDEST PUSH2 0x22E PUSH2 0x275 CALLDATASIZE PUSH1 0x4 PUSH2 0xCB0 JUMP JUMPDEST PUSH1 0x3 PUSH1 0x20 MSTORE PUSH1 0x0 SWAP1 DUP2 MSTORE PUSH1 0x40 SWAP1 KECCAK256 SLOAD DUP2 JUMP JUMPDEST PUSH2 0x19C PUSH2 0x295 CALLDATASIZE PUSH1 0x4 PUSH2 0xCB0 JUMP JUMPDEST PUSH2 0xA01 JUMP JUMPDEST PUSH2 0x22E PUSH2 0x2A8 CALLDATASIZE PUSH1 0x4 PUSH2 0xCEB JUMP JUMPDEST PUSH2 0xA65 JUMP JUMPDEST PUSH2 0x12E PUSH2 0x2BB CALLDATASIZE PUSH1 0x4 PUSH2 0xCB0 JUMP JUMPDEST PUSH2 0xB22 JUMP JUMPDEST PUSH1 0x6 SLOAD PUSH2 0x159 SWAP1 PUSH1 0x1 PUSH1 0x1 PUSH1 0xA0 SHL SUB AND DUP2 JUMP JUMPDEST PUSH2 0x159 PUSH2 0x2E1 CALLDATASIZE PUSH1 0x4 PUSH2 0xCD2 JUMP JUMPDEST PUSH2 0xBBA JUMP JUMPDEST PUSH1 0x0 DUP3 GT PUSH2 0x34C JUMPI PUSH1 0x40 MLOAD PUSH3 0x461BCD PUSH1 0xE5 SHL DUP2 MSTORE PUSH1 0x20 PUSH1 0x4 DUP3 ADD MSTORE PUSH1 0x28 PUSH1 0x24 DUP3 ADD MSTORE PUSH32 0x4661696C65643A205374616B656420616D6F756E742073686F756C6420626520 PUSH1 0x44 DUP3 ADD MSTORE PUSH8 0x6E6F6E207A65726F PUSH1 0xC0 SHL PUSH1 0x64 DUP3 ADD MSTORE PUSH1 0x84 ADD JUMPDEST PUSH1 0x40 MLOAD DUP1 SWAP2 SUB SWAP1 REVERT JUMPDEST PUSH2 0x355 DUP2 PUSH2 0xA01 JUMP JUMPDEST PUSH2 0x3B8 JUMPI PUSH1 0x40 MLOAD PUSH3 0x461BCD PUSH1 0xE5 SHL DUP2 MSTORE PUSH1 0x20 PUSH1 0x4 DUP3 ADD MSTORE PUSH1 0x2E PUSH1 0x24 DUP3 ADD MSTORE PUSH32 0x4661696C65643A20546F6B656E206973206E6F7420696E206C697374206F6620 PUSH1 0x44 DUP3 ADD MSTORE PUSH14 0x616C6C6F77656420746F6B656E73 PUSH1 0x90 SHL PUSH1 0x64 DUP3 ADD MSTORE PUSH1 0x84 ADD PUSH2 0x343 JUMP JUMPDEST PUSH1 0x40 MLOAD PUSH4 0x23B872DD PUSH1 0xE0 SHL DUP2 MSTORE CALLER PUSH1 0x4 DUP3 ADD MSTORE ADDRESS PUSH1 0x24 DUP3 ADD MSTORE PUSH1 0x44 DUP2 ADD DUP4 SWAP1 MSTORE PUSH1 0x1 PUSH1 0x1 PUSH1 0xA0 SHL SUB DUP3 AND SWAP1 PUSH4 0x23B872DD SWAP1 PUSH1 0x64 ADD PUSH1 0x20 PUSH1 0x40 MLOAD DUP1 DUP4 SUB DUP2 PUSH1 0x0 DUP8 GAS CALL ISZERO DUP1 ISZERO PUSH2 0x40B JUMPI RETURNDATASIZE PUSH1 0x0 DUP1 RETURNDATACOPY RETURNDATASIZE PUSH1 0x0 REVERT JUMPDEST POP POP POP POP PUSH1 0x40 MLOAD RETURNDATASIZE PUSH1 0x1F NOT PUSH1 0x1F DUP3 ADD AND DUP3 ADD DUP1 PUSH1 0x40 MSTORE POP DUP2 ADD SWAP1 PUSH2 0x42F SWAP2 SWAP1 PUSH2 0xD15 JUMP JUMPDEST POP PUSH2 0x43A CALLER DUP3 PUSH2 0xBCA JUMP JUMPDEST PUSH1 0x1 PUSH1 0x1 PUSH1 0xA0 SHL SUB DUP2 AND PUSH1 0x0 SWAP1 DUP2 MSTORE PUSH1 0x2 PUSH1 0x20 SWAP1 DUP2 MSTORE PUSH1 0x40 DUP1 DUP4 KECCAK256 CALLER DUP5 MSTORE SWAP1 SWAP2 MSTORE DUP2 KECCAK256 DUP1 SLOAD DUP5 SWAP3 SWAP1 PUSH2 0x46D SWAP1 DUP5 SWAP1 PUSH2 0xD4D JUMP JUMPDEST SWAP1 SWAP2 SSTORE POP POP CALLER PUSH1 0x0 SWAP1 DUP2 MSTORE PUSH1 0x3 PUSH1 0x20 MSTORE PUSH1 0x40 SWAP1 KECCAK256 SLOAD PUSH1 0x1 SUB PUSH2 0x4CC JUMPI PUSH1 0x4 DUP1 SLOAD PUSH1 0x1 DUP2 ADD DUP3 SSTORE PUSH1 0x0 SWAP2 SWAP1 SWAP2 MSTORE PUSH32 0x8A35ACFBC15FF81A39AE7D344FD709F28E8600B4AA8C65C6B64BFE7FE36BD19B ADD DUP1 SLOAD PUSH1 0x1 PUSH1 0x1 PUSH1 0xA0 SHL SUB NOT AND CALLER OR SWAP1 SSTORE JUMPDEST POP POP JUMP JUMPDEST PUSH1 0x1 PUSH1 0x1 PUSH1 0xA0 SHL SUB DUP2 AND PUSH1 0x0 SWAP1 DUP2 MSTORE PUSH1 0x2 PUSH1 0x20 SWAP1 DUP2 MSTORE PUSH1 0x40 DUP1 DUP4 KECCAK256 CALLER DUP5 MSTORE SWAP1 SWAP2 MSTORE SWAP1 KECCAK256 SLOAD DUP1 PUSH2 0x52E JUMPI PUSH1 0x40 MLOAD PUSH3 0x461BCD PUSH1 0xE5 SHL DUP2 MSTORE PUSH1 0x20 PUSH1 0x4 DUP3 ADD MSTORE PUSH1 0xA PUSH1 0x24 DUP3 ADD MSTORE PUSH10 0x4E6F2062616C616E6365 PUSH1 0xB0 SHL PUSH1 0x44 DUP3 ADD MSTORE PUSH1 0x64 ADD PUSH2 0x343 JUMP JUMPDEST PUSH1 0x40 MLOAD PUSH4 0xA9059CBB PUSH1 0xE0 SHL DUP2 MSTORE CALLER PUSH1 0x4 DUP3 ADD MSTORE PUSH1 0x24 DUP2 ADD DUP3 SWAP1 MSTORE PUSH1 0x1 PUSH1 0x1 PUSH1 0xA0 SHL SUB DUP4 AND SWAP1 PUSH4 0xA9059CBB SWAP1 PUSH1 0x44 ADD PUSH1 0x20 PUSH1 0x40 MLOAD DUP1 DUP4 SUB DUP2 PUSH1 0x0 DUP8 GAS CALL ISZERO DUP1 ISZERO PUSH2 0x57B JUMPI RETURNDATASIZE PUSH1 0x0 DUP1 RETURNDATACOPY RETURNDATASIZE PUSH1 0x0 REVERT JUMPDEST POP POP POP POP PUSH1 0x40 MLOAD RETURNDATASIZE PUSH1 0x1F NOT PUSH1 0x1F DUP3 ADD AND DUP3 ADD DUP1 PUSH1 0x40 MSTORE POP DUP2 ADD SWAP1 PUSH2 0x59F SWAP2 SWAP1 PUSH2 0xD15 JUMP JUMPDEST POP PUSH1 0x1 PUSH1 0x1 PUSH1 0xA0 SHL SUB DUP3 AND PUSH1 0x0 SWAP1 DUP2 MSTORE PUSH1 0x2 PUSH1 0x20 SWAP1 DUP2 MSTORE PUSH1 0x40 DUP1 DUP4 KECCAK256 CALLER DUP5 MSTORE DUP3 MSTORE DUP1 DUP4 KECCAK256 DUP4 SWAP1 SSTORE PUSH1 0x3 SWAP1 SWAP2 MSTORE DUP2 KECCAK256 DUP1 SLOAD PUSH1 0x1 SWAP3 SWAP1 PUSH2 0x5DE SWAP1 DUP5 SWAP1 PUSH2 0xD65 JUMP JUMPDEST SWAP1 SWAP2 SSTORE POP POP POP POP JUMP JUMPDEST PUSH1 0x0 DUP1 SLOAD PUSH1 0x1 PUSH1 0x1 PUSH1 0xA0 SHL SUB AND CALLER EQ PUSH2 0x612 JUMPI PUSH1 0x40 MLOAD PUSH3 0x461BCD PUSH1 0xE5 SHL DUP2 MSTORE PUSH1 0x4 ADD PUSH2 0x343 SWAP1 PUSH2 0xD7C JUMP JUMPDEST PUSH1 0x0 PUSH2 0x61D DUP4 PUSH2 0xA01 JUMP JUMPDEST SWAP1 POP DUP1 PUSH2 0x676 JUMPI POP POP PUSH1 0x1 DUP1 SLOAD DUP1 DUP3 ADD DUP3 SSTORE PUSH1 0x0 DUP3 SWAP1 MSTORE PUSH32 0xB10E2D527612073B26EECDFD717E6A320CF44B4AFAC2B0732D9FCBE2B7FA0CF6 ADD DUP1 SLOAD PUSH1 0x1 PUSH1 0x1 PUSH1 0xA0 SHL SUB DUP5 AND PUSH1 0x1 PUSH1 0x1 PUSH1 0xA0 SHL SUB NOT SWAP1 SWAP2 AND OR SWAP1 SSTORE SWAP2 SWAP1 POP JUMP JUMPDEST PUSH1 0x0 SWAP2 POP POP JUMPDEST SWAP2 SWAP1 POP JUMP JUMPDEST PUSH1 0x1 PUSH1 0x1 PUSH1 0xA0 SHL SUB DUP1 DUP3 AND PUSH1 0x0 SWAP1 DUP2 MSTORE PUSH1 0x5 PUSH1 0x20 MSTORE PUSH1 0x40 DUP1 DUP3 KECCAK256 SLOAD DUP2 MLOAD PUSH4 0x3FABE5A3 PUSH1 0xE2 SHL DUP2 MSTORE SWAP2 MLOAD SWAP3 SWAP4 DUP5 SWAP4 SWAP2 AND SWAP2 DUP3 SWAP2 DUP5 SWAP2 DUP4 SWAP2 PUSH4 0xFEAF968C SWAP2 PUSH1 0x4 DUP1 DUP3 ADD SWAP3 PUSH1 0xA0 SWAP3 SWAP1 SWAP2 SWAP1 DUP3 SWAP1 SUB ADD DUP2 DUP7 GAS STATICCALL ISZERO DUP1 ISZERO PUSH2 0x6E2 JUMPI RETURNDATASIZE PUSH1 0x0 DUP1 RETURNDATACOPY RETURNDATASIZE PUSH1 0x0 REVERT JUMPDEST POP POP POP POP PUSH1 0x40 MLOAD RETURNDATASIZE PUSH1 0x1F NOT PUSH1 0x1F DUP3 ADD AND DUP3 ADD DUP1 PUSH1 0x40 MSTORE POP DUP2 ADD SWAP1 PUSH2 0x706 SWAP2 SWAP1 PUSH2 0xDCB JUMP JUMPDEST POP POP POP SWAP2 POP POP PUSH1 0x0 DUP3 PUSH1 0x1 PUSH1 0x1 PUSH1 0xA0 SHL SUB AND PUSH4 0x313CE567 PUSH1 0x40 MLOAD DUP2 PUSH4 0xFFFFFFFF AND PUSH1 0xE0 SHL DUP2 MSTORE PUSH1 0x4 ADD PUSH1 0x20 PUSH1 0x40 MLOAD DUP1 DUP4 SUB DUP2 DUP7 GAS STATICCALL ISZERO DUP1 ISZERO PUSH2 0x74C JUMPI RETURNDATASIZE PUSH1 0x0 DUP1 RETURNDATACOPY RETURNDATASIZE PUSH1 0x0 REVERT JUMPDEST POP POP POP POP PUSH1 0x40 MLOAD RETURNDATASIZE PUSH1 0x1F NOT PUSH1 0x1F DUP3 ADD AND DUP3 ADD DUP1 PUSH1 0x40 MSTORE POP DUP2 ADD SWAP1 PUSH2 0x770 SWAP2 SWAP1 PUSH2 0xE1B JUMP JUMPDEST SWAP2 SWAP8 PUSH1 0xFF SWAP1 SWAP3 AND SWAP7 POP SWAP1 SWAP5 POP POP POP POP POP JUMP JUMPDEST PUSH1 0x0 SLOAD PUSH1 0x1 PUSH1 0x1 PUSH1 0xA0 SHL SUB AND CALLER EQ PUSH2 0x7AC JUMPI PUSH1 0x40 MLOAD PUSH3 0x461BCD PUSH1 0xE5 SHL DUP2 MSTORE PUSH1 0x4 ADD PUSH2 0x343 SWAP1 PUSH2 0xD7C JUMP JUMPDEST PUSH1 0x0 JUMPDEST PUSH1 0x4 SLOAD DUP2 LT ISZERO PUSH2 0x87C JUMPI PUSH1 0x0 PUSH1 0x4 DUP3 DUP2 SLOAD DUP2 LT PUSH2 0x7CE JUMPI PUSH2 0x7CE PUSH2 0xE3E JUMP JUMPDEST PUSH1 0x0 SWAP2 DUP3 MSTORE PUSH1 0x20 DUP3 KECCAK256 ADD SLOAD PUSH1 0x1 PUSH1 0x1 PUSH1 0xA0 SHL SUB AND SWAP2 POP PUSH2 0x7ED DUP3 PUSH2 0x937 JUMP JUMPDEST PUSH1 0x6 SLOAD PUSH1 0x40 MLOAD PUSH4 0xA9059CBB PUSH1 0xE0 SHL DUP2 MSTORE PUSH1 0x1 PUSH1 0x1 PUSH1 0xA0 SHL SUB DUP6 DUP2 AND PUSH1 0x4 DUP4 ADD MSTORE PUSH1 0x24 DUP3 ADD DUP5 SWAP1 MSTORE SWAP3 SWAP4 POP SWAP2 AND SWAP1 PUSH4 0xA9059CBB SWAP1 PUSH1 0x44 ADD PUSH1 0x20 PUSH1 0x40 MLOAD DUP1 DUP4 SUB DUP2 PUSH1 0x0 DUP8 GAS CALL ISZERO DUP1 ISZERO PUSH2 0x842 JUMPI RETURNDATASIZE PUSH1 0x0 DUP1 RETURNDATACOPY RETURNDATASIZE PUSH1 0x0 REVERT JUMPDEST POP POP POP POP PUSH1 0x40 MLOAD RETURNDATASIZE PUSH1 0x1F NOT PUSH1 0x1F DUP3 ADD AND DUP3 ADD DUP1 PUSH1 0x40 MSTORE POP DUP2 ADD SWAP1 PUSH2 0x866 SWAP2 SWAP1 PUSH2 0xD15 JUMP JUMPDEST POP POP POP DUP1 DUP1 PUSH2 0x874 SWAP1 PUSH2 0xE54 JUMP JUMPDEST SWAP2 POP POP PUSH2 0x7AF JUMP JUMPDEST POP JUMP JUMPDEST PUSH1 0x1 DUP2 DUP2 SLOAD DUP2 LT PUSH2 0x88F JUMPI PUSH1 0x0 DUP1 REVERT JUMPDEST PUSH1 0x0 SWAP2 DUP3 MSTORE PUSH1 0x20 SWAP1 SWAP2 KECCAK256 ADD SLOAD PUSH1 0x1 PUSH1 0x1 PUSH1 0xA0 SHL SUB AND SWAP1 POP DUP2 JUMP JUMPDEST PUSH1 0x0 SLOAD PUSH1 0x1 PUSH1 0x1 PUSH1 0xA0 SHL SUB AND CALLER EQ PUSH2 0x8D3 JUMPI PUSH1 0x40 MLOAD PUSH3 0x461BCD PUSH1 0xE5 SHL DUP2 MSTORE PUSH1 0x4 ADD PUSH2 0x343 SWAP1 PUSH2 0xD7C JUMP JUMPDEST PUSH2 0x8DD PUSH1 0x0 PUSH2 0xC1D JUMP JUMPDEST JUMP JUMPDEST PUSH1 0x0 SLOAD PUSH1 0x1 PUSH1 0x1 PUSH1 0xA0 SHL SUB AND CALLER EQ PUSH2 0x909 JUMPI PUSH1 0x40 MLOAD PUSH3 0x461BCD PUSH1 0xE5 SHL DUP2 MSTORE PUSH1 0x4 ADD PUSH2 0x343 SWAP1 PUSH2 0xD7C JUMP JUMPDEST PUSH1 0x1 PUSH1 0x1 PUSH1 0xA0 SHL SUB SWAP2 DUP3 AND PUSH1 0x0 SWAP1 DUP2 MSTORE PUSH1 0x5 PUSH1 0x20 MSTORE PUSH1 0x40 SWAP1 KECCAK256 DUP1 SLOAD PUSH1 0x1 PUSH1 0x1 PUSH1 0xA0 SHL SUB NOT AND SWAP2 SWAP1 SWAP3 AND OR SWAP1 SSTORE JUMP JUMPDEST PUSH1 0x1 PUSH1 0x1 PUSH1 0xA0 SHL SUB DUP2 AND PUSH1 0x0 SWAP1 DUP2 MSTORE PUSH1 0x3 PUSH1 0x20 MSTORE PUSH1 0x40 DUP2 KECCAK256 SLOAD DUP2 SWAP1 PUSH2 0x99E JUMPI PUSH1 0x40 MLOAD PUSH3 0x461BCD PUSH1 0xE5 SHL DUP2 MSTORE PUSH1 0x20 PUSH1 0x4 DUP3 ADD DUP2 SWAP1 MSTORE PUSH1 0x24 DUP3 ADD MSTORE PUSH32 0x4E6F20746F6B656E73207374616B65642062792063757272656E742075736572 PUSH1 0x44 DUP3 ADD MSTORE PUSH1 0x64 ADD PUSH2 0x343 JUMP JUMPDEST PUSH1 0x0 JUMPDEST PUSH1 0x1 SLOAD DUP2 LT ISZERO PUSH2 0x9FA JUMPI PUSH2 0x9DC DUP5 PUSH1 0x1 DUP4 DUP2 SLOAD DUP2 LT PUSH2 0x9C2 JUMPI PUSH2 0x9C2 PUSH2 0xE3E JUMP JUMPDEST PUSH1 0x0 SWAP2 DUP3 MSTORE PUSH1 0x20 SWAP1 SWAP2 KECCAK256 ADD SLOAD PUSH1 0x1 PUSH1 0x1 PUSH1 0xA0 SHL SUB AND PUSH2 0xA65 JUMP JUMPDEST PUSH2 0x9E6 SWAP1 DUP4 PUSH2 0xD4D JUMP JUMPDEST SWAP2 POP DUP1 PUSH2 0x9F2 DUP2 PUSH2 0xE54 JUMP JUMPDEST SWAP2 POP POP PUSH2 0x9A1 JUMP JUMPDEST POP SWAP3 SWAP2 POP POP JUMP JUMPDEST PUSH1 0x0 DUP1 JUMPDEST PUSH1 0x1 SLOAD DUP2 LT ISZERO PUSH2 0xA5C JUMPI PUSH1 0x1 DUP2 DUP2 SLOAD DUP2 LT PUSH2 0xA22 JUMPI PUSH2 0xA22 PUSH2 0xE3E JUMP JUMPDEST PUSH1 0x0 SWAP2 DUP3 MSTORE PUSH1 0x20 SWAP1 SWAP2 KECCAK256 ADD SLOAD PUSH1 0x1 PUSH1 0x1 PUSH1 0xA0 SHL SUB SWAP1 DUP2 AND SWAP1 DUP5 AND SUB PUSH2 0xA4A JUMPI POP PUSH1 0x1 SWAP3 SWAP2 POP POP JUMP JUMPDEST DUP1 PUSH2 0xA54 DUP2 PUSH2 0xE54 JUMP JUMPDEST SWAP2 POP POP PUSH2 0xA05 JUMP JUMPDEST POP PUSH1 0x0 SWAP3 SWAP2 POP POP JUMP JUMPDEST PUSH1 0x1 PUSH1 0x1 PUSH1 0xA0 SHL SUB DUP3 AND PUSH1 0x0 SWAP1 DUP2 MSTORE PUSH1 0x3 PUSH1 0x20 MSTORE PUSH1 0x40 DUP2 KECCAK256 SLOAD PUSH2 0xA8A JUMPI POP PUSH1 0x0 PUSH2 0xB1C JUMP JUMPDEST PUSH1 0x1 PUSH1 0x1 PUSH1 0xA0 SHL SUB DUP1 DUP4 AND PUSH1 0x0 SWAP1 DUP2 MSTORE PUSH1 0x2 PUSH1 0x20 SWAP1 DUP2 MSTORE PUSH1 0x40 DUP1 DUP4 KECCAK256 SWAP4 DUP8 AND DUP4 MSTORE SWAP3 SWAP1 MSTORE SWAP1 DUP2 KECCAK256 SLOAD SWAP1 SUB PUSH2 0xAC0 JUMPI POP PUSH1 0x0 PUSH2 0xB1C JUMP JUMPDEST PUSH1 0x0 DUP1 PUSH2 0xACC DUP5 PUSH2 0x681 JUMP JUMPDEST SWAP1 SWAP3 POP SWAP1 POP PUSH2 0xADC DUP2 PUSH1 0xA PUSH2 0xF51 JUMP JUMPDEST PUSH1 0x1 PUSH1 0x1 PUSH1 0xA0 SHL SUB DUP1 DUP7 AND PUSH1 0x0 SWAP1 DUP2 MSTORE PUSH1 0x2 PUSH1 0x20 SWAP1 DUP2 MSTORE PUSH1 0x40 DUP1 DUP4 KECCAK256 SWAP4 DUP11 AND DUP4 MSTORE SWAP3 SWAP1 MSTORE KECCAK256 SLOAD PUSH2 0xB0D SWAP1 DUP5 SWAP1 PUSH2 0xF5D JUMP JUMPDEST PUSH2 0xB17 SWAP2 SWAP1 PUSH2 0xF7C JUMP JUMPDEST SWAP3 POP POP POP JUMPDEST SWAP3 SWAP2 POP POP JUMP JUMPDEST PUSH1 0x0 SLOAD PUSH1 0x1 PUSH1 0x1 PUSH1 0xA0 SHL SUB AND CALLER EQ PUSH2 0xB4C JUMPI PUSH1 0x40 MLOAD PUSH3 0x461BCD PUSH1 0xE5 SHL DUP2 MSTORE PUSH1 0x4 ADD PUSH2 0x343 SWAP1 PUSH2 0xD7C JUMP JUMPDEST PUSH1 0x1 PUSH1 0x1 PUSH1 0xA0 SHL SUB DUP2 AND PUSH2 0xBB1 JUMPI PUSH1 0x40 MLOAD PUSH3 0x461BCD PUSH1 0xE5 SHL DUP2 MSTORE PUSH1 0x20 PUSH1 0x4 DUP3 ADD MSTORE PUSH1 0x26 PUSH1 0x24 DUP3 ADD MSTORE PUSH32 0x4F776E61626C653A206E6577206F776E657220697320746865207A65726F2061 PUSH1 0x44 DUP3 ADD MSTORE PUSH6 0x646472657373 PUSH1 0xD0 SHL PUSH1 0x64 DUP3 ADD MSTORE PUSH1 0x84 ADD PUSH2 0x343 JUMP JUMPDEST PUSH2 0x87C DUP2 PUSH2 0xC1D JUMP JUMPDEST PUSH1 0x4 DUP2 DUP2 SLOAD DUP2 LT PUSH2 0x88F JUMPI PUSH1 0x0 DUP1 REVERT JUMPDEST PUSH1 0x1 PUSH1 0x1 PUSH1 0xA0 SHL SUB DUP1 DUP3 AND PUSH1 0x0 SWAP1 DUP2 MSTORE PUSH1 0x2 PUSH1 0x20 SWAP1 DUP2 MSTORE PUSH1 0x40 DUP1 DUP4 KECCAK256 SWAP4 DUP7 AND DUP4 MSTORE SWAP3 SWAP1 MSTORE KECCAK256 SLOAD PUSH2 0x4CC JUMPI PUSH1 0x1 PUSH1 0x1 PUSH1 0xA0 SHL SUB DUP3 AND PUSH1 0x0 SWAP1 DUP2 MSTORE PUSH1 0x3 PUSH1 0x20 MSTORE PUSH1 0x40 DUP2 KECCAK256 DUP1 SLOAD PUSH1 0x1 SWAP3 SWAP1 PUSH2 0x5DE SWAP1 DUP5 SWAP1 PUSH2 0xD4D JUMP JUMPDEST PUSH1 0x0 DUP1 SLOAD PUSH1 0x1 PUSH1 0x1 PUSH1 0xA0 SHL SUB DUP4 DUP2 AND PUSH1 0x1 PUSH1 0x1 PUSH1 0xA0 SHL SUB NOT DUP4 AND DUP2 OR DUP5 SSTORE PUSH1 0x40 MLOAD SWAP2 SWAP1 SWAP3 AND SWAP3 DUP4 SWAP2 PUSH32 0x8BE0079C531659141344CD1FD0A4F28419497F9722A3DAAFE3B4186F6B6457E0 SWAP2 SWAP1 LOG3 POP POP JUMP JUMPDEST DUP1 CALLDATALOAD PUSH1 0x1 PUSH1 0x1 PUSH1 0xA0 SHL SUB DUP2 AND DUP2 EQ PUSH2 0x67C JUMPI PUSH1 0x0 DUP1 REVERT JUMPDEST PUSH1 0x0 DUP1 PUSH1 0x40 DUP4 DUP6 SUB SLT ISZERO PUSH2 0xC97 JUMPI PUSH1 0x0 DUP1 REVERT JUMPDEST DUP3 CALLDATALOAD SWAP2 POP PUSH2 0xCA7 PUSH1 0x20 DUP5 ADD PUSH2 0xC6D JUMP JUMPDEST SWAP1 POP SWAP3 POP SWAP3 SWAP1 POP JUMP JUMPDEST PUSH1 0x0 PUSH1 0x20 DUP3 DUP5 SUB SLT ISZERO PUSH2 0xCC2 JUMPI PUSH1 0x0 DUP1 REVERT JUMPDEST PUSH2 0xCCB DUP3 PUSH2 0xC6D JUMP JUMPDEST SWAP4 SWAP3 POP POP POP JUMP JUMPDEST PUSH1 0x0 PUSH1 0x20 DUP3 DUP5 SUB SLT ISZERO PUSH2 0xCE4 JUMPI PUSH1 0x0 DUP1 REVERT JUMPDEST POP CALLDATALOAD SWAP2 SWAP1 POP JUMP JUMPDEST PUSH1 0x0 DUP1 PUSH1 0x40 DUP4 DUP6 SUB SLT ISZERO PUSH2 0xCFE JUMPI PUSH1 0x0 DUP1 REVERT JUMPDEST PUSH2 0xD07 DUP4 PUSH2 0xC6D JUMP JUMPDEST SWAP2 POP PUSH2 0xCA7 PUSH1 0x20 DUP5 ADD PUSH2 0xC6D JUMP JUMPDEST PUSH1 0x0 PUSH1 0x20 DUP3 DUP5 SUB SLT ISZERO PUSH2 0xD27 JUMPI PUSH1 0x0 DUP1 REVERT JUMPDEST DUP2 MLOAD DUP1 ISZERO ISZERO DUP2 EQ PUSH2 0xCCB JUMPI PUSH1 0x0 DUP1 REVERT JUMPDEST PUSH4 0x4E487B71 PUSH1 0xE0 SHL PUSH1 0x0 MSTORE PUSH1 0x11 PUSH1 0x4 MSTORE PUSH1 0x24 PUSH1 0x0 REVERT JUMPDEST PUSH1 0x0 DUP3 NOT DUP3 GT ISZERO PUSH2 0xD60 JUMPI PUSH2 0xD60 PUSH2 0xD37 JUMP JUMPDEST POP ADD SWAP1 JUMP JUMPDEST PUSH1 0x0 DUP3 DUP3 LT ISZERO PUSH2 0xD77 JUMPI PUSH2 0xD77 PUSH2 0xD37 JUMP JUMPDEST POP SUB SWAP1 JUMP JUMPDEST PUSH1 0x20 DUP1 DUP3 MSTORE DUP2 DUP2 ADD MSTORE PUSH32 0x4F776E61626C653A2063616C6C6572206973206E6F7420746865206F776E6572 PUSH1 0x40 DUP3 ADD MSTORE PUSH1 0x60 ADD SWAP1 JUMP JUMPDEST DUP1 MLOAD PUSH10 0xFFFFFFFFFFFFFFFFFFFF DUP2 AND DUP2 EQ PUSH2 0x67C JUMPI PUSH1 0x0 DUP1 REVERT JUMPDEST PUSH1 0x0 DUP1 PUSH1 0x0 DUP1 PUSH1 0x0 PUSH1 0xA0 DUP7 DUP9 SUB SLT ISZERO PUSH2 0xDE3 JUMPI PUSH1 0x0 DUP1 REVERT JUMPDEST PUSH2 0xDEC DUP7 PUSH2 0xDB1 JUMP JUMPDEST SWAP5 POP PUSH1 0x20 DUP7 ADD MLOAD SWAP4 POP PUSH1 0x40 DUP7 ADD MLOAD SWAP3 POP PUSH1 0x60 DUP7 ADD MLOAD SWAP2 POP PUSH2 0xE0F PUSH1 0x80 DUP8 ADD PUSH2 0xDB1 JUMP JUMPDEST SWAP1 POP SWAP3 SWAP6 POP SWAP3 SWAP6 SWAP1 SWAP4 POP JUMP JUMPDEST PUSH1 0x0 PUSH1 0x20 DUP3 DUP5 SUB SLT ISZERO PUSH2 0xE2D JUMPI PUSH1 0x0 DUP1 REVERT JUMPDEST DUP2 MLOAD PUSH1 0xFF DUP2 AND DUP2 EQ PUSH2 0xCCB JUMPI PUSH1 0x0 DUP1 REVERT JUMPDEST PUSH4 0x4E487B71 PUSH1 0xE0 SHL PUSH1 0x0 MSTORE PUSH1 0x32 PUSH1 0x4 MSTORE PUSH1 0x24 PUSH1 0x0 REVERT JUMPDEST PUSH1 0x0 PUSH1 0x1 DUP3 ADD PUSH2 0xE66 JUMPI PUSH2 0xE66 PUSH2 0xD37 JUMP JUMPDEST POP PUSH1 0x1 ADD SWAP1 JUMP JUMPDEST PUSH1 0x1 DUP2 DUP2 JUMPDEST DUP1 DUP6 GT ISZERO PUSH2 0xEA8 JUMPI DUP2 PUSH1 0x0 NOT DIV DUP3 GT ISZERO PUSH2 0xE8E JUMPI PUSH2 0xE8E PUSH2 0xD37 JUMP JUMPDEST DUP1 DUP6 AND ISZERO PUSH2 0xE9B JUMPI SWAP2 DUP2 MUL SWAP2 JUMPDEST SWAP4 DUP5 SHR SWAP4 SWAP1 DUP1 MUL SWAP1 PUSH2 0xE72 JUMP JUMPDEST POP SWAP3 POP SWAP3 SWAP1 POP JUMP JUMPDEST PUSH1 0x0 DUP3 PUSH2 0xEBF JUMPI POP PUSH1 0x1 PUSH2 0xB1C JUMP JUMPDEST DUP2 PUSH2 0xECC JUMPI POP PUSH1 0x0 PUSH2 0xB1C JUMP JUMPDEST DUP2 PUSH1 0x1 DUP2 EQ PUSH2 0xEE2 JUMPI PUSH1 0x2 DUP2 EQ PUSH2 0xEEC JUMPI PUSH2 0xF08 JUMP JUMPDEST PUSH1 0x1 SWAP2 POP POP PUSH2 0xB1C JUMP JUMPDEST PUSH1 0xFF DUP5 GT ISZERO PUSH2 0xEFD JUMPI PUSH2 0xEFD PUSH2 0xD37 JUMP JUMPDEST POP POP PUSH1 0x1 DUP3 SHL PUSH2 0xB1C JUMP JUMPDEST POP PUSH1 0x20 DUP4 LT PUSH2 0x133 DUP4 LT AND PUSH1 0x4E DUP5 LT PUSH1 0xB DUP5 LT AND OR ISZERO PUSH2 0xF2B JUMPI POP DUP2 DUP2 EXP PUSH2 0xB1C JUMP JUMPDEST PUSH2 0xF35 DUP4 DUP4 PUSH2 0xE6D JUMP JUMPDEST DUP1 PUSH1 0x0 NOT DIV DUP3 GT ISZERO PUSH2 0xF49 JUMPI PUSH2 0xF49 PUSH2 0xD37 JUMP JUMPDEST MUL SWAP4 SWAP3 POP POP POP JUMP JUMPDEST PUSH1 0x0 PUSH2 0xCCB DUP4 DUP4 PUSH2 0xEB0 JUMP JUMPDEST PUSH1 0x0 DUP2 PUSH1 0x0 NOT DIV DUP4 GT DUP3 ISZERO ISZERO AND ISZERO PUSH2 0xF77 JUMPI PUSH2 0xF77 PUSH2 0xD37 JUMP JUMPDEST POP MUL SWAP1 JUMP JUMPDEST PUSH1 0x0 DUP3 PUSH2 0xF99 JUMPI PUSH4 0x4E487B71 PUSH1 0xE0 SHL PUSH1 0x0 MSTORE PUSH1 0x12 PUSH1 0x4 MSTORE PUSH1 0x24 PUSH1 0x0 REVERT JUMPDEST POP DIV SWAP1 JUMP INVALID LOG2 PUSH5 0x6970667358 0x22 SLT KECCAK256 0xCA 0xC1 0x1F KECCAK256 SELFDESTRUCT DUP12 PUSH27 0x933F3D054676C6F085A67C370088CDE171295145B598D812986473 PUSH16 0x6C634300080D00330000000000000000 ",
  "sha1": "da206e186422eb524a0d108b15f5c3c428fd455f",
  "source": "\n\n// unstake tokens\n\n\n// burn tokens\n\n// add Allowed tokens\n\n// get eth value\n\n// SPDX-License-Identifier: MIT\n\npragma solidity ^0.8.0;\nimport \"@openzeppelin/contracts/access/Ownable.sol\";\nimport \"@openzeppelin/contracts/token/ERC20/IERC20.sol\";\nimport \"@chainlink/contracts/src/v0.8/interfaces/AggregatorV3Interface.sol\";\n\n\ncontract TokenFarm is Ownable{ \n\n    address[] public allowedTokensToStake;\n    // mapping token address -> staker address -> amount\n    mapping (address => mapping(address => uint256)) public stakedBalances;\n    mapping (address => uint256) public uniqueTokensStaked;\n    address[] public stakers;\n    mapping(address => address) public tokenPriceFeedMapping;\n    IERC20 public cheruToken;\n\n    // stake tokens\n    function stakeTokens(uint256 _amount, address _stakedToken) public{\n        require (_amount >0, \"Failed: Staked amount should be non zero\");\n\n        require(isAllowedToken(_stakedToken), \"Failed: Token is not in list of allowed tokens\");\n\n\n        IERC20(_stakedToken).transferFrom(msg.sender, address(this), _amount);\n        \n        updateUniqueTokensStaked(msg.sender, _stakedToken);\n        stakedBalances[_stakedToken][msg.sender] += _amount;\n\n        if (uniqueTokensStaked[msg.sender] == 1){\n            stakers.push(msg.sender);\n        }\n    }\n\n    // set price feed contracts\n    function setPriceFeedContract(address _token, address _priceFeed) public onlyOwner {\n        tokenPriceFeedMapping[_token] = _priceFeed;\n    }\n\n    function updateUniqueTokensStaked(address sender, address token) internal {\n        if(stakedBalances[token][sender] <= 0){\n            uniqueTokensStaked[sender] += 1;\n        }\n    }\n\n    // define a constructor with CheruToken\n    constructor (address _cheruToken) public {\n        cheruToken = IERC20(_cheruToken);\n    }\n\n    // issue tokens - we issue tokens as reward for users who stake their tokens o\n    // on our platform\n    function issueTokens() public onlyOwner{\n        for(uint256 stakeIndx=0; stakeIndx <stakers.length; stakeIndx++){\n            address recepient = stakers[stakeIndx];\n            uint256 transferValue = getTotalTransferValue(recepient);\n            cheruToken.transfer(recepient, transferValue);\n        }   \n    }\n\n    // unstake token\n    // return balance to sender\n    // remove the balance from stakedBalances\n    // reduce uniqueStakedTokens by one\n    \n    function unstakeTokens(address _token) public {\n        uint256 balance = stakedBalances[_token][msg.sender];\n        require(balance > 0 , \"No balance\");\n\n        IERC20(_token).transfer(msg.sender, balance);\n        stakedBalances[_token][msg.sender] = 0;\n        uniqueTokensStaked[msg.sender] -= 1;\n\n    }\n\n    // get total transfer value for a particular staken\n    // this is sum total of all tokens staked by user multiplied by their current prices\n\n    function getTotalTransferValue(address _staker) public view returns(uint256){\n        uint256 totalValue = 0;\n        require(uniqueTokensStaked[_staker] > 0, \"No tokens staked by current user\");\n\n        // loop over all allowed tokens\n        for (uint256 allowedTokenIndx = 0; allowedTokenIndx < allowedTokensToStake.length; allowedTokenIndx++){\n            totalValue += getTransferValuePerToken(_staker, allowedTokensToStake[allowedTokenIndx]);\n        }    \n\n        return totalValue;\n    }\n\n    // total amount to transfer per toekn per user\n    function getTransferValuePerToken(address _staker, address _token) public view returns(uint256){\n        // no tokens staked by a user\n        if(uniqueTokensStaked[_staker] <= 0){\n            return 0;\n        }\n\n        // \n        if(stakedBalances[_token][_staker]==0){\n            return 0;\n        }\n        (uint256 price, uint256 decimals) = getPrice(_token);\n        return stakedBalances[_token][_staker] * price / 10**decimals;\n\n    }\n\n    //get Price for a given token\n    function getPrice(address _token) public view returns(uint256, uint256){\n        address priceFeedAddress = tokenPriceFeedMapping[_token];\n\n\n        AggregatorV3Interface priceFeed = AggregatorV3Interface(priceFeedAddress);\n        (,int256 price,,,)= priceFeed.latestRoundData();\n\n        uint256 decimals = uint256(priceFeed.decimals());\n        return (uint256(price), decimals);\n    }\n\n\n    // is token allowed to stake\n    function isAllowedToken(address _token) public returns(bool) {\n        for (uint256 indx = 0; indx < allowedTokensToStake.length; indx++){\n            if(_token == allowedTokensToStake[indx]){\n                return true;\n            }\n        }\n        return false;\n    }\n\n    // add allowed token\n    // function only owner can perform, add onlyOwner modifier\n    function addAllowedToken(address _token) onlyOwner public returns(bool) {\n        bool isAllowed = isAllowedToken(_token);\n        if(!isAllowed){\n            // add only if address does not exist already\n            allowedTokensToStake.push(_token);\n            return true;\n        }\n\n        // if already exists, simply skip\n        return false;\n    }\n\n}",
  "sourcePath": "contracts/TokenFarm.sol",
  "type": "contract"
}